{"abi":[{"type":"function","name":"previewZap","inputs":[{"name":"items","type":"tuple[]","internalType":"struct ZapRouter.ZapItem[]","components":[{"name":"vault","type":"address","internalType":"address"},{"name":"amount","type":"uint256","internalType":"uint256"}]}],"outputs":[{"name":"totalShares","type":"uint256","internalType":"uint256"}],"stateMutability":"view"},{"type":"function","name":"zapDeposit","inputs":[{"name":"items","type":"tuple[]","internalType":"struct ZapRouter.ZapItem[]","components":[{"name":"vault","type":"address","internalType":"address"},{"name":"amount","type":"uint256","internalType":"uint256"}]}],"outputs":[{"name":"totalShares","type":"uint256","internalType":"uint256"}],"stateMutability":"nonpayable"},{"type":"event","name":"Zapped","inputs":[{"name":"user","type":"address","indexed":true,"internalType":"address"},{"name":"itemCount","type":"uint256","indexed":false,"internalType":"uint256"},{"name":"totalDeposited","type":"uint256","indexed":false,"internalType":"uint256"}],"anonymous":false},{"type":"error","name":"InvalidVault","inputs":[]},{"type":"error","name":"NothingToZap","inputs":[]},{"type":"error","name":"ReentrancyGuardReentrantCall","inputs":[]},{"type":"error","name":"SafeERC20FailedOperation","inputs":[{"name":"token","type":"address","internalType":"address"}]},{"type":"error","name":"ZeroAmount","inputs":[]}],"bytecode":{"object":"0x608060405234801561000f575f80fd5b5060017f9b779b17422d0df92223018b32b4d1fa46e071723d6817e2486d003becc55f0055610718806100415f395ff3fe608060405234801561000f575f80fd5b5060043610610034575f3560e01c80630661fbc7146100385780638abd74861461005d575b5f80fd5b61004b6100463660046105d5565b610070565b60405190815260200160405180910390f35b61004b61006b3660046105d5565b610147565b5f81815b8181101561013f5784848281811061008e5761008e610644565b6100a4926020604090920201908101915061066f565b6001600160a01b031663ef8b30f78686848181106100c4576100c4610644565b905060400201602001356040518263ffffffff1660e01b81526004016100ec91815260200190565b602060405180830381865afa158015610107573d5f803e3d5ffd5b505050506040513d601f19601f8201168201806040525081019061012b9190610691565b61013590846106a8565b9250600101610074565b505092915050565b5f6101506103d4565b815f819003610172576040516312807eb960e01b815260040160405180910390fd5b5f805b82811015610367573686868381811061019057610190610644565b905060400201905080602001355f036101bc57604051631f2a200560e01b815260040160405180910390fd5b5f6101ca602083018361066f565b6001600160a01b0316036101f157604051630681d31960e51b815260040160405180910390fd5b5f6101ff602083018361066f565b90505f816001600160a01b03166338d52e0f6040518163ffffffff1660e01b8152600401602060405180830381865afa15801561023e573d5f803e3d5ffd5b505050506040513d601f19601f8201168201806040525081019061026291906106c7565b90506001600160a01b03811661028b57604051630681d31960e51b815260040160405180910390fd5b806102a56001600160a01b03821633306020880135610402565b6102ca6102b5602086018661066f565b6001600160a01b038316906020870135610443565b604051636e553f6560e01b8152602085013560048201523360248201526001600160a01b03841690636e553f65906044016020604051808303815f875af1158015610317573d5f803e3d5ffd5b505050506040513d601f19601f8201168201806040525081019061033b9190610691565b61034590896106a8565b97506103556020850135876106a8565b95505060019093019250610175915050565b50604080518381526020810183905233917f0580f103309fa59f672359e543e4fddd405f8431e6de48e1d345e7e35d20bc90910160405180910390a250506103ce60017f9b779b17422d0df92223018b32b4d1fa46e071723d6817e2486d003becc55f0055565b92915050565b6103dc6104c2565b60027f9b779b17422d0df92223018b32b4d1fa46e071723d6817e2486d003becc55f0055565b610410848484846001610506565b61043d57604051635274afe760e01b81526001600160a01b03851660048201526024015b60405180910390fd5b50505050565b61044f8383835f610573565b6104bd5761046083835f6001610573565b61048857604051635274afe760e01b81526001600160a01b0384166004820152602401610434565b6104958383836001610573565b6104bd57604051635274afe760e01b81526001600160a01b0384166004820152602401610434565b505050565b7f9b779b17422d0df92223018b32b4d1fa46e071723d6817e2486d003becc55f005460020361050457604051633ee5aeb560e01b815260040160405180910390fd5b565b6040516323b872dd60e01b5f8181526001600160a01b038781166004528616602452604485905291602083606481808c5af1925060015f51148316610562578383151615610556573d5f823e3d81fd5b5f883b113d1516831692505b604052505f60605295945050505050565b60405163095ea7b360e01b5f8181526001600160a01b038616600452602485905291602083604481808b5af1925060015f511483166105c95783831516156105bd573d5f823e3d81fd5b5f873b113d1516831692505b60405250949350505050565b5f80602083850312156105e6575f80fd5b823567ffffffffffffffff808211156105fd575f80fd5b818501915085601f830112610610575f80fd5b81358181111561061e575f80fd5b8660208260061b8501011115610632575f80fd5b60209290920196919550909350505050565b634e487b7160e01b5f52603260045260245ffd5b6001600160a01b038116811461066c575f80fd5b50565b5f6020828403121561067f575f80fd5b813561068a81610658565b9392505050565b5f602082840312156106a1575f80fd5b5051919050565b808201808211156103ce57634e487b7160e01b5f52601160045260245ffd5b5f602082840312156106d7575f80fd5b815161068a8161065856fea2646970667358221220dc1ef56ac93e78f7cc0da6c8773dd3126e0d60217a12d882dd2abeed2f2c3c4164736f6c63430008180033","linkReferences":{}},"methodIdentifiers":{"previewZap((address,uint256)[])":"0661fbc7","zapDeposit((address,uint256)[])":"8abd7486"},"id":46}