{"abi":[{"type":"constructor","inputs":[{"name":"name_","type":"string","internalType":"string"},{"name":"symbol_","type":"string","internalType":"string"}],"stateMutability":"nonpayable"},{"type":"function","name":"DEFAULT_ADMIN_ROLE","inputs":[],"outputs":[{"name":"","type":"bytes32","internalType":"bytes32"}],"stateMutability":"view"},{"type":"function","name":"FAUCET_AMOUNT","inputs":[],"outputs":[{"name":"","type":"uint256","internalType":"uint256"}],"stateMutability":"view"},{"type":"function","name":"FAUCET_COOLDOWN","inputs":[],"outputs":[{"name":"","type":"uint256","internalType":"uint256"}],"stateMutability":"view"},{"type":"function","name":"MINTER_ROLE","inputs":[],"outputs":[{"name":"","type":"bytes32","internalType":"bytes32"}],"stateMutability":"view"},{"type":"function","name":"allowance","inputs":[{"name":"owner","type":"address","internalType":"address"},{"name":"spender","type":"address","internalType":"address"}],"outputs":[{"name":"","type":"uint256","internalType":"uint256"}],"stateMutability":"view"},{"type":"function","name":"approve","inputs":[{"name":"spender","type":"address","internalType":"address"},{"name":"value","type":"uint256","internalType":"uint256"}],"outputs":[{"name":"","type":"bool","internalType":"bool"}],"stateMutability":"nonpayable"},{"type":"function","name":"balanceOf","inputs":[{"name":"account","type":"address","internalType":"address"}],"outputs":[{"name":"","type":"uint256","internalType":"uint256"}],"stateMutability":"view"},{"type":"function","name":"decimals","inputs":[],"outputs":[{"name":"","type":"uint8","internalType":"uint8"}],"stateMutability":"view"},{"type":"function","name":"faucet","inputs":[],"outputs":[],"stateMutability":"nonpayable"},{"type":"function","name":"getRoleAdmin","inputs":[{"name":"role","type":"bytes32","internalType":"bytes32"}],"outputs":[{"name":"","type":"bytes32","internalType":"bytes32"}],"stateMutability":"view"},{"type":"function","name":"grantRole","inputs":[{"name":"role","type":"bytes32","internalType":"bytes32"},{"name":"account","type":"address","internalType":"address"}],"outputs":[],"stateMutability":"nonpayable"},{"type":"function","name":"hasRole","inputs":[{"name":"role","type":"bytes32","internalType":"bytes32"},{"name":"account","type":"address","internalType":"address"}],"outputs":[{"name":"","type":"bool","internalType":"bool"}],"stateMutability":"view"},{"type":"function","name":"lastFaucetClaim","inputs":[{"name":"","type":"address","internalType":"address"}],"outputs":[{"name":"","type":"uint256","internalType":"uint256"}],"stateMutability":"view"},{"type":"function","name":"mint","inputs":[{"name":"to","type":"address","internalType":"address"},{"name":"amount","type":"uint256","internalType":"uint256"}],"outputs":[],"stateMutability":"nonpayable"},{"type":"function","name":"name","inputs":[],"outputs":[{"name":"","type":"string","internalType":"string"}],"stateMutability":"view"},{"type":"function","name":"renounceRole","inputs":[{"name":"role","type":"bytes32","internalType":"bytes32"},{"name":"callerConfirmation","type":"address","internalType":"address"}],"outputs":[],"stateMutability":"nonpayable"},{"type":"function","name":"revokeRole","inputs":[{"name":"role","type":"bytes32","internalType":"bytes32"},{"name":"account","type":"address","internalType":"address"}],"outputs":[],"stateMutability":"nonpayable"},{"type":"function","name":"supportsInterface","inputs":[{"name":"interfaceId","type":"bytes4","internalType":"bytes4"}],"outputs":[{"name":"","type":"bool","internalType":"bool"}],"stateMutability":"view"},{"type":"function","name":"symbol","inputs":[],"outputs":[{"name":"","type":"string","internalType":"string"}],"stateMutability":"view"},{"type":"function","name":"totalSupply","inputs":[],"outputs":[{"name":"","type":"uint256","internalType":"uint256"}],"stateMutability":"view"},{"type":"function","name":"transfer","inputs":[{"name":"to","type":"address","internalType":"address"},{"name":"value","type":"uint256","internalType":"uint256"}],"outputs":[{"name":"","type":"bool","internalType":"bool"}],"stateMutability":"nonpayable"},{"type":"function","name":"transferFrom","inputs":[{"name":"from","type":"address","internalType":"address"},{"name":"to","type":"address","internalType":"address"},{"name":"value","type":"uint256","internalType":"uint256"}],"outputs":[{"name":"","type":"bool","internalType":"bool"}],"stateMutability":"nonpayable"},{"type":"event","name":"Approval","inputs":[{"name":"owner","type":"address","indexed":true,"internalType":"address"},{"name":"spender","type":"address","indexed":true,"internalType":"address"},{"name":"value","type":"uint256","indexed":false,"internalType":"uint256"}],"anonymous":false},{"type":"event","name":"FaucetClaimed","inputs":[{"name":"claimer","type":"address","indexed":true,"internalType":"address"},{"name":"amount","type":"uint256","indexed":false,"internalType":"uint256"}],"anonymous":false},{"type":"event","name":"RoleAdminChanged","inputs":[{"name":"role","type":"bytes32","indexed":true,"internalType":"bytes32"},{"name":"previousAdminRole","type":"bytes32","indexed":true,"internalType":"bytes32"},{"name":"newAdminRole","type":"bytes32","indexed":true,"internalType":"bytes32"}],"anonymous":false},{"type":"event","name":"RoleGranted","inputs":[{"name":"role","type":"bytes32","indexed":true,"internalType":"bytes32"},{"name":"account","type":"address","indexed":true,"internalType":"address"},{"name":"sender","type":"address","indexed":true,"internalType":"address"}],"anonymous":false},{"type":"event","name":"RoleRevoked","inputs":[{"name":"role","type":"bytes32","indexed":true,"internalType":"bytes32"},{"name":"account","type":"address","indexed":true,"internalType":"address"},{"name":"sender","type":"address","indexed":true,"internalType":"address"}],"anonymous":false},{"type":"event","name":"Transfer","inputs":[{"name":"from","type":"address","indexed":true,"internalType":"address"},{"name":"to","type":"address","indexed":true,"internalType":"address"},{"name":"value","type":"uint256","indexed":false,"internalType":"uint256"}],"anonymous":false},{"type":"error","name":"AccessControlBadConfirmation","inputs":[]},{"type":"error","name":"AccessControlUnauthorizedAccount","inputs":[{"name":"account","type":"address","internalType":"address"},{"name":"neededRole","type":"bytes32","internalType":"bytes32"}]},{"type":"error","name":"ERC20InsufficientAllowance","inputs":[{"name":"spender","type":"address","internalType":"address"},{"name":"allowance","type":"uint256","internalType":"uint256"},{"name":"needed","type":"uint256","internalType":"uint256"}]},{"type":"error","name":"ERC20InsufficientBalance","inputs":[{"name":"sender","type":"address","internalType":"address"},{"name":"balance","type":"uint256","internalType":"uint256"},{"name":"needed","type":"uint256","internalType":"uint256"}]},{"type":"error","name":"ERC20InvalidApprover","inputs":[{"name":"approver","type":"address","internalType":"address"}]},{"type":"error","name":"ERC20InvalidReceiver","inputs":[{"name":"receiver","type":"address","internalType":"address"}]},{"type":"error","name":"ERC20InvalidSender","inputs":[{"name":"sender","type":"address","internalType":"address"}]},{"type":"error","name":"ERC20InvalidSpender","inputs":[{"name":"spender","type":"address","internalType":"address"}]},{"type":"error","name":"FaucetCooldownActive","inputs":[{"name":"availableAt","type":"uint256","internalType":"uint256"}]}],"bytecode":{"object":"0x608060405234801562000010575f80fd5b5060405162000fe638038062000fe68339810160408190526200003391620001dd565b81816003620000438382620002cd565b506004620000528282620002cd565b506200006391505f9050336200006c565b50505062000399565b5f8281526005602090815260408083206001600160a01b038516845290915281205460ff1662000113575f8381526005602090815260408083206001600160a01b03861684529091529020805460ff19166001179055620000ca3390565b6001600160a01b0316826001600160a01b0316847f2f8788117e7eff1d82e926ec794901d17c78024a50270940304540a733656f0d60405160405180910390a450600162000116565b505f5b92915050565b634e487b7160e01b5f52604160045260245ffd5b5f82601f83011262000140575f80fd5b81516001600160401b03808211156200015d576200015d6200011c565b604051601f8301601f19908116603f011681019082821181831017156200018857620001886200011c565b8160405283815260209250866020858801011115620001a5575f80fd5b5f91505b83821015620001c85785820183015181830184015290820190620001a9565b5f602085830101528094505050505092915050565b5f8060408385031215620001ef575f80fd5b82516001600160401b038082111562000206575f80fd5b620002148683870162000130565b935060208501519150808211156200022a575f80fd5b50620002398582860162000130565b9150509250929050565b600181811c908216806200025857607f821691505b6020821081036200027757634e487b7160e01b5f52602260045260245ffd5b50919050565b601f821115620002c857805f5260205f20601f840160051c81016020851015620002a45750805b601f840160051c820191505b81811015620002c5575f8155600101620002b0565b50505b505050565b81516001600160401b03811115620002e957620002e96200011c565b6200030181620002fa845462000243565b846200027d565b602080601f83116001811462000337575f84156200031f5750858301515b5f19600386901b1c1916600185901b17855562000391565b5f85815260208120601f198616915b82811015620003675788860151825594840194600190910190840162000346565b50858210156200038557878501515f19600388901b60f8161c191681555b505060018460011b0185555b505050505050565b610c3f80620003a75f395ff3fe608060405234801561000f575f80fd5b506004361061013d575f3560e01c806376697640116100b4578063a217fddf11610079578063a217fddf1461029e578063a9059cbb146102a5578063d5391393146102b8578063d547741f146102df578063dd62ed3e146102f2578063de5f72fd1461032a575f80fd5b8063766976401461024a5780637d1d5d191461025b5780638a8772051461026457806391d148541461028357806395d89b4114610296575f80fd5b8063248a9ca311610105578063248a9ca3146101b65780632f2ff15d146101d8578063313ce567146101ed57806336568abe146101fc57806340c10f191461020f57806370a0823114610222575f80fd5b806301ffc9a71461014157806306fdde0314610169578063095ea7b31461017e57806318160ddd1461019157806323b872dd146101a3575b5f80fd5b61015461014f366004610a3a565b610332565b60405190151581526020015b60405180910390f35b610171610368565b6040516101609190610a68565b61015461018c366004610acf565b6103f8565b6002545b604051908152602001610160565b6101546101b1366004610af7565b61040f565b6101956101c4366004610b30565b5f9081526005602052604090206001015490565b6101eb6101e6366004610b47565b610432565b005b60405160128152602001610160565b6101eb61020a366004610b47565b61045c565b6101eb61021d366004610acf565b610494565b610195610230366004610b71565b6001600160a01b03165f9081526020819052604090205490565b61019569021e19e0c9bab240000081565b61019561708081565b610195610272366004610b71565b60066020525f908152604090205481565b610154610291366004610b47565b6104c8565b6101716104f2565b6101955f81565b6101546102b3366004610acf565b610501565b6101957f9f2df0fed2c77648de5860a4cc508cd0818c85b8b8a1ab4ceeef8d981c8956a681565b6101eb6102ed366004610b47565b61050e565b610195610300366004610b8a565b6001600160a01b039182165f90815260016020908152604080832093909416825291909152205490565b6101eb610532565b5f6001600160e01b03198216637965db0b60e01b148061036257506301ffc9a760e01b6001600160e01b03198316145b92915050565b60606003805461037790610bb2565b80601f01602080910402602001604051908101604052809291908181526020018280546103a390610bb2565b80156103ee5780601f106103c5576101008083540402835291602001916103ee565b820191905f5260205f20905b8154815290600101906020018083116103d157829003601f168201915b5050505050905090565b5f336104058185856105e8565b5060019392505050565b5f3361041c8582856105f5565b61042785858561066b565b506001949350505050565b5f8281526005602052604090206001015461044c816106c8565b61045683836106d5565b50505050565b6001600160a01b03811633146104855760405163334bd91960e11b815260040160405180910390fd5b61048f8282610766565b505050565b7f9f2df0fed2c77648de5860a4cc508cd0818c85b8b8a1ab4ceeef8d981c8956a66104be816106c8565b61048f83836107d1565b5f9182526005602090815260408084206001600160a01b0393909316845291905290205460ff1690565b60606004805461037790610bb2565b5f3361040581858561066b565b5f82815260056020526040902060010154610528816106c8565b6104568383610766565b335f908152600660205260409020548015610581575f61055461708083610bea565b90508042101561057f57604051639ad22e0f60e01b8152600481018290526024015b60405180910390fd5b505b335f8181526006602052604090204290556105a69069021e19e0c9bab24000006107d1565b60405169021e19e0c9bab2400000815233907f5d4f415c63cd8a5874d9d291cdd64cec37e5dc236d90d659c958d109d78074b39060200160405180910390a250565b61048f8383836001610809565b6001600160a01b038381165f908152600160209081526040808320938616835292905220545f19811015610456578181101561065d57604051637dc7a0d960e11b81526001600160a01b03841660048201526024810182905260448101839052606401610576565b61045684848484035f610809565b6001600160a01b03831661069457604051634b637e8f60e11b81525f6004820152602401610576565b6001600160a01b0382166106bd5760405163ec442f0560e01b81525f6004820152602401610576565b61048f8383836108db565b6106d28133610a01565b50565b5f6106e083836104c8565b61075f575f8381526005602090815260408083206001600160a01b03861684529091529020805460ff191660011790556107173390565b6001600160a01b0316826001600160a01b0316847f2f8788117e7eff1d82e926ec794901d17c78024a50270940304540a733656f0d60405160405180910390a4506001610362565b505f610362565b5f61077183836104c8565b1561075f575f8381526005602090815260408083206001600160a01b0386168085529252808320805460ff1916905551339286917ff6391f5c32d9c69d2a47ea670b442974b53935d1edc7fd64eb21e047a839171b9190a4506001610362565b6001600160a01b0382166107fa5760405163ec442f0560e01b81525f6004820152602401610576565b6108055f83836108db565b5050565b6001600160a01b0384166108325760405163e602df0560e01b81525f6004820152602401610576565b6001600160a01b03831661085b57604051634a1406b160e11b81525f6004820152602401610576565b6001600160a01b038085165f908152600160209081526040808320938716835292905220829055801561045657826001600160a01b0316846001600160a01b03167f8c5be1e5ebec7d5bd14f71427d1e84f3dd0314c0f7b2291e5b200ac8c7c3b925846040516108cd91815260200190565b60405180910390a350505050565b6001600160a01b038316610905578060025f8282546108fa9190610bea565b909155506109759050565b6001600160a01b0383165f90815260208190526040902054818110156109575760405163391434e360e21b81526001600160a01b03851660048201526024810182905260448101839052606401610576565b6001600160a01b0384165f9081526020819052604090209082900390555b6001600160a01b038216610991576002805482900390556109af565b6001600160a01b0382165f9081526020819052604090208054820190555b816001600160a01b0316836001600160a01b03167fddf252ad1be2c89b69c2b068fc378daa952ba7f163c4a11628f55a4df523b3ef836040516109f491815260200190565b60405180910390a3505050565b610a0b82826104c8565b6108055760405163e2517d3f60e01b81526001600160a01b038216600482015260248101839052604401610576565b5f60208284031215610a4a575f80fd5b81356001600160e01b031981168114610a61575f80fd5b9392505050565b5f602080835283518060208501525f5b81811015610a9457858101830151858201604001528201610a78565b505f604082860101526040601f19601f8301168501019250505092915050565b80356001600160a01b0381168114610aca575f80fd5b919050565b5f8060408385031215610ae0575f80fd5b610ae983610ab4565b946020939093013593505050565b5f805f60608486031215610b09575f80fd5b610b1284610ab4565b9250610b2060208501610ab4565b9150604084013590509250925092565b5f60208284031215610b40575f80fd5b5035919050565b5f8060408385031215610b58575f80fd5b82359150610b6860208401610ab4565b90509250929050565b5f60208284031215610b81575f80fd5b610a6182610ab4565b5f8060408385031215610b9b575f80fd5b610ba483610ab4565b9150610b6860208401610ab4565b600181811c90821680610bc657607f821691505b602082108103610be457634e487b7160e01b5f52602260045260245ffd5b50919050565b8082018082111561036257634e487b7160e01b5f52601160045260245ffdfea26469706673582212208cd54d5157dead9b5b87ce8077ed79887729a94d446c6e01fedd9627da14e73b64736f6c63430008180033","linkReferences":{}},"methodIdentifiers":{"DEFAULT_ADMIN_ROLE()":"a217fddf","FAUCET_AMOUNT()":"76697640","FAUCET_COOLDOWN()":"7d1d5d19","MINTER_ROLE()":"d5391393","allowance(address,address)":"dd62ed3e","approve(address,uint256)":"095ea7b3","balanceOf(address)":"70a08231","decimals()":"313ce567","faucet()":"de5f72fd","getRoleAdmin(bytes32)":"248a9ca3","grantRole(bytes32,address)":"2f2ff15d","hasRole(bytes32,address)":"91d14854","lastFaucetClaim(address)":"8a877205","mint(address,uint256)":"40c10f19","name()":"06fdde03","renounceRole(bytes32,address)":"36568abe","revokeRole(bytes32,address)":"d547741f","supportsInterface(bytes4)":"01ffc9a7","symbol()":"95d89b41","totalSupply()":"18160ddd","transfer(address,uint256)":"a9059cbb","transferFrom(address,address,uint256)":"23b872dd"},"id":43}