{"abi":[{"type":"function","name":"allVaults","inputs":[{"name":"","type":"uint256","internalType":"uint256"}],"outputs":[{"name":"","type":"address","internalType":"address"}],"stateMutability":"view"},{"type":"function","name":"createVault","inputs":[{"name":"asset","type":"address","internalType":"contract IERC20Metadata"},{"name":"owner","type":"address","internalType":"address"}],"outputs":[{"name":"vault","type":"address","internalType":"address"}],"stateMutability":"nonpayable"},{"type":"function","name":"vaultCount","inputs":[],"outputs":[{"name":"","type":"uint256","internalType":"uint256"}],"stateMutability":"view"},{"type":"function","name":"vaultFor","inputs":[{"name":"","type":"address","internalType":"address"}],"outputs":[{"name":"","type":"address","internalType":"address"}],"stateMutability":"view"},{"type":"event","name":"VaultCreated","inputs":[{"name":"asset","type":"address","indexed":true,"internalType":"address"},{"name":"vault","type":"address","indexed":true,"internalType":"address"},{"name":"owner","type":"address","indexed":false,"internalType":"address"}],"anonymous":false},{"type":"error","name":"InvalidSymbol","inputs":[]},{"type":"error","name":"VaultAlreadyExists","inputs":[{"name":"asset","type":"address","internalType":"address"}]},{"type":"error","name":"ZeroAddress","inputs":[]}],"bytecode":{"object":"0x608060405234801561000f575f80fd5b506124048061001d5f395ff3fe608060405234801562000010575f80fd5b506004361062000050575f3560e01c80633d77cdcf14620000545780639094a91e146200009c578063a7c6a10014620000b3578063cc92d31c14620000c5575b5f80fd5b6200007f6200006536600462000378565b5f602081905290815260409020546001600160a01b031681565b6040516001600160a01b0390911681526020015b60405180910390f35b6200007f620000ad3660046200039d565b620000dc565b60015460405190815260200162000093565b6200007f620000d6366004620003b5565b62000105565b60018181548110620000ec575f80fd5b5f918252602090912001546001600160a01b0316905081565b5f6001600160a01b03831615806200012457506001600160a01b038216155b15620001435760405163d92e233d60e01b815260040160405180910390fd5b6001600160a01b038381165f9081526020819052604090205416156200018b57604051634293864f60e01b81526001600160a01b038416600482015260240160405180910390fd5b5f836001600160a01b03166395d89b416040518163ffffffff1660e01b81526004015f60405180830381865afa158015620001c8573d5f803e3d5ffd5b505050506040513d5f823e601f3d908101601f19168201604052620001f1919081019062000429565b8051909150801580620002045750600c81115b15620002235760405163010466f160e21b815260040160405180910390fd5b5f82604051602001620002379190620004dd565b60405160208183030381529060405290505f836040516020016200025c91906200050f565b6040516020818303038152906040529050868282886040516200027f9062000352565b6200028e949392919062000566565b604051809103905ff080158015620002a8573d5f803e3d5ffd5b506001600160a01b038881165f8181526020818152604080832080548787166001600160a01b0319918216811790925560018054808201825595527fb10e2d527612073b26eecdfd717e6a320cf44b4afac2b0732d9fcbe2b7fa0cf69094018054909416811790935551938b1684529398509290917f897c133dfbfe1f6239e98b4ffd7e4f6c86a62350a131a7a37790419f58af02f9910160405180910390a35050505092915050565b611e1c80620005b383390190565b6001600160a01b038116811462000375575f80fd5b50565b5f6020828403121562000389575f80fd5b8135620003968162000360565b9392505050565b5f60208284031215620003ae575f80fd5b5035919050565b5f8060408385031215620003c7575f80fd5b8235620003d48162000360565b91506020830135620003e68162000360565b809150509250929050565b634e487b7160e01b5f52604160045260245ffd5b5f5b838110156200042157818101518382015260200162000407565b50505f910152565b5f602082840312156200043a575f80fd5b815167ffffffffffffffff8082111562000452575f80fd5b818401915084601f83011262000466575f80fd5b8151818111156200047b576200047b620003f1565b604051601f8201601f19908116603f01168101908382118183101715620004a657620004a6620003f1565b81604052828152876020848701011115620004bf575f80fd5b620004d283602083016020880162000405565b979650505050505050565b6802832b93832ba3ab0960bd1b81525f82516200050281600985016020870162000405565b9190910160090192915050565b600760fc1b81525f82516200052c81600185016020870162000405565b9190910160010192915050565b5f81518084526200055281602086016020860162000405565b601f01601f19169290920160200192915050565b5f60018060a01b0380871683526080602084015262000589608084018762000539565b83810360408501526200059d818762000539565b9250508084166060840152509594505050505056fe60c060405234801562000010575f80fd5b5060405162001e1c38038062001e1c8339810160408190526200003391620002d4565b808484846003620000458382620003ed565b506004620000548282620003ed565b5050505f806200006a83620000f060201b60201c565b91509150816200007c5760126200007e565b805b60ff1660a05250506001600160a01b039081166080528116620000ba57604051631e4fbdf760e01b81525f600482015260240160405180910390fd5b620000c58162000189565b50600880546001600160a01b0319166001600160a01b039290921691909117905550620004b9915050565b5f8080620000fd60405190565b6040805160048152602481019091526020810180516001600160e01b0390811663313ce56760e01b179091529192505f9182916200013f91889190620001da16565b5090925090506200014f83604052565b8180156200015e575060203d10155b80156200016c575060ff8111155b62000179575f806200017d565b6001815b94509450505050915091565b600580546001600160a01b038381166001600160a01b0319831681179093556040519116919082907f8be0079c531659141344cd1fd0a4f28419497f9722a3daafe3b4186f6b6457e0905f90a35050565b5f805f60405f855160208701885afa92505f51915060205190509250925092565b6001600160a01b038116811462000210575f80fd5b50565b634e487b7160e01b5f52604160045260245ffd5b5f82601f83011262000237575f80fd5b81516001600160401b038082111562000254576200025462000213565b604051601f8301601f19908116603f011681019082821181831017156200027f576200027f62000213565b81604052838152602092508660208588010111156200029c575f80fd5b5f91505b83821015620002bf5785820183015181830184015290820190620002a0565b5f602085830101528094505050505092915050565b5f805f8060808587031215620002e8575f80fd5b8451620002f581620001fb565b60208601519094506001600160401b038082111562000312575f80fd5b620003208883890162000227565b9450604087015191508082111562000336575f80fd5b50620003458782880162000227565b92505060608501516200035881620001fb565b939692955090935050565b600181811c908216806200037857607f821691505b6020821081036200039757634e487b7160e01b5f52602260045260245ffd5b50919050565b601f821115620003e857805f5260205f20601f840160051c81016020851015620003c45750805b601f840160051c820191505b81811015620003e5575f8155600101620003d0565b50505b505050565b81516001600160401b0381111562000409576200040962000213565b62000421816200041a845462000363565b846200039d565b602080601f83116001811462000457575f84156200043f5750858301515b5f19600386901b1c1916600185901b178555620004b1565b5f85815260208120601f198616915b82811015620004875788860151825594840194600190910190840162000466565b5085821015620004a557878501515f19600388901b60f8161c191681555b505060018460011b0185555b505050505050565b60805160a051611925620004f75f395f61069001525f81816102e8015281816105130152818161072201528181611306015261140d01526119255ff3fe608060405234801561000f575f80fd5b5060043610610234575f3560e01c8063715018a611610135578063ba087652116100b4578063d905777e11610079578063d905777e1461049f578063dd62ed3e146104b2578063e74b981b146104ea578063ef8b30f714610470578063f2fde38b146104fd575f80fd5b8063ba0876521461045d578063c63d75b61461032a578063c6e6f59214610470578063ce96cb7714610483578063d55be8c614610496575f80fd5b8063a9059cbb116100fa578063a9059cbb14610408578063b2470e5c1461041b578063b3d7f6b91461042e578063b460af9414610441578063b9d4e87914610454575f80fd5b8063715018a6146103cc5780638456cb59146103d45780638da5cb5b146103dc57806394bf804d146103ed57806395d89b4114610400575f80fd5b80633f4ba83a116101c15780635c975abb116101865780635c975abb14610359578063666a0c841461036b5780636e553f651461037e57806370897b231461039157806370a08231146103a4575f80fd5b80633f4ba83a14610320578063402d267d1461032a5780634641257d1461033e57806346904840146103465780634cdad50614610268575f80fd5b80630a28a477116102075780630a28a4771461029e57806318160ddd146102b157806323b872dd146102b9578063313ce567146102cc57806338d52e0f146102e6575f80fd5b806301e1d1141461023857806306fdde031461025357806307a2d13a14610268578063095ea7b31461027b575b5f80fd5b610240610510565b6040519081526020015b60405180910390f35b61025b61059f565b60405161024a9190611538565b610240610276366004611584565b61062f565b61028e6102893660046115af565b610640565b604051901515815260200161024a565b6102406102ac366004611584565b610657565b600254610240565b61028e6102c73660046115d9565b610663565b6102d4610688565b60405160ff909116815260200161024a565b7f00000000000000000000000000000000000000000000000000000000000000005b6040516001600160a01b03909116815260200161024a565b6103286106b4565b005b610240610338366004611617565b505f1990565b6102406106c6565b600854610308906001600160a01b031681565b600554600160a01b900460ff1661028e565b610328610379366004611617565b610971565b61024061038c366004611632565b6109e9565b61032861039f366004611584565b6109fc565b6102406103b2366004611617565b6001600160a01b03165f9081526020819052604090205490565b610328610a62565b610328610a73565b6005546001600160a01b0316610308565b6102406103fb366004611632565b610a83565b61025b610a96565b61028e6104163660046115af565b610aa5565b600654610308906001600160a01b031681565b61024061043c366004611584565b610ab2565b61024061044f366004611660565b610abe565b61024060075481565b61024061046b366004611660565b610b14565b61024061047e366004611584565b610b61565b610240610491366004611617565b610b6c565b6102406107d081565b6102406104ad366004611617565b610b75565b6102406104c036600461169f565b6001600160a01b039182165f90815260016020908152604080832093909416825291909152205490565b6103286104f8366004611617565b610b92565b61032861050b366004611617565b610be3565b5f7f00000000000000000000000000000000000000000000000000000000000000006040516370a0823160e01b81523060048201526001600160a01b0391909116906370a0823190602401602060405180830381865afa158015610576573d5f803e3d5ffd5b505050506040513d601f19601f8201168201806040525081019061059a91906116cb565b905090565b6060600380546105ae906116e2565b80601f01602080910402602001604051908101604052809291908181526020018280546105da906116e2565b80156106255780601f106105fc57610100808354040283529160200191610625565b820191905f5260205f20905b81548152906001019060200180831161060857829003601f168201915b5050505050905090565b5f61063a825f610c20565b92915050565b5f3361064d818585610c59565b5060019392505050565b5f61063a826001610c6b565b5f33610670858285610c9b565b61067b858585610d04565b60019150505b9392505050565b5f61059a60067f000000000000000000000000000000000000000000000000000000000000000061172e565b6106bc610d61565b6106c4610d8e565b565b5f6106cf610de3565b6006546001600160a01b03168061071f5760405162461bcd60e51b815260206004820152600f60248201526e6e6f207969656c6420736f7572636560881b60448201526064015b60405180910390fd5b5f7f00000000000000000000000000000000000000000000000000000000000000006040516370a0823160e01b81523060048201529091505f906001600160a01b038316906370a0823190602401602060405180830381865afa158015610788573d5f803e3d5ffd5b505050506040513d601f19601f820116820180604052508101906107ac91906116cb565b60405163072e008f60e11b81523060048201529091506001600160a01b03841690630e5c011e906024016020604051808303815f875af11580156107f2573d5f803e3d5ffd5b505050506040513d601f19601f8201168201806040525081019061081691906116cb565b506040516370a0823160e01b81523060048201525f9082906001600160a01b038516906370a0823190602401602060405180830381865afa15801561085d573d5f803e3d5ffd5b505050506040513d601f19601f8201168201806040525081019061088191906116cb565b61088b9190611747565b9050805f036108dd57604080515f808252602082018190528183015290517febdd323f18ba49318367d0c92a04d5c51a67f15a60ad50d46523db464661a3029181900360600190a15f94505050505090565b5f612710600754836108ef919061175a565b6108f99190611785565b9050801561091b5760085461091b906001600160a01b03868116911683610e0e565b6109258183611747565b60408051848152602081018490529081018290529096507febdd323f18ba49318367d0c92a04d5c51a67f15a60ad50d46523db464661a3029060600160405180910390a1505050505090565b610979610d61565b6001600160a01b0381166109a05760405163d92e233d60e01b815260040160405180910390fd5b600680546001600160a01b0319166001600160a01b0383169081179091556040517fdfe6862f96614d57cd7ddf7f02342750b21effcddd4517c57d0192cf5bd26165905f90a250565b5f6109f2610de3565b6106818383610e43565b610a04610d61565b6107d0811115610a275760405163cd4e616760e01b815260040160405180910390fd5b60078190556040518181527f9b49d0cd76012d9c67241c2f68f836efbaf50ea29901a250040671402d5263f59060200160405180910390a150565b610a6a610d61565b6106c45f610e66565b610a7b610d61565b6106c4610eb7565b5f610a8c610de3565b6106818383610efa565b6060600480546105ae906116e2565b5f3361064d818585610d04565b5f61063a826001610c20565b5f80610ac983610b6c565b905080851115610af257828582604051633fa733bb60e21b815260040161071693929190611798565b5f610afc86610657565b9050610b0b3386868985610f15565b95945050505050565b5f80610b1f83610b75565b905080851115610b4857828582604051632e52afbb60e21b815260040161071693929190611798565b5f610b528661062f565b9050610b0b338686848a610f15565b5f61063a825f610c6b565b5f61063a610276835b6001600160a01b0381165f9081526020819052604081205461063a565b610b9a610d61565b6001600160a01b038116610bc15760405163d92e233d60e01b815260040160405180910390fd5b600880546001600160a01b0319166001600160a01b0392909216919091179055565b610beb610d61565b6001600160a01b038116610c1457604051631e4fbdf760e01b81525f6004820152602401610716565b610c1d81610e66565b50565b5f610681610c2c610510565b610c379060016117b9565b610c436006600a6118ac565b600254610c5091906117b9565b85919085610fb4565b610c668383836001610ff6565b505050565b5f610681610c7b6006600a6118ac565b600254610c8891906117b9565b610c90610510565b610c509060016117b9565b6001600160a01b038381165f908152600160209081526040808320938616835292905220545f19811015610cfe5781811015610cf057828183604051637dc7a0d960e11b815260040161071693929190611798565b610cfe84848484035f610ff6565b50505050565b6001600160a01b038316610d2d57604051634b637e8f60e11b81525f6004820152602401610716565b6001600160a01b038216610d565760405163ec442f0560e01b81525f6004820152602401610716565b610c668383836110c8565b6005546001600160a01b031633146106c45760405163118cdaa760e01b8152336004820152602401610716565b610d966111db565b6005805460ff60a01b191690557f5db9ee0a495bf2e6ff9c91a7834c1ba4fdd244a5e8aa4e537bd38aeae4b073aa335b6040516001600160a01b03909116815260200160405180910390a1565b600554600160a01b900460ff16156106c45760405163d93c066560e01b815260040160405180910390fd5b610e1b8383836001611205565b610c6657604051635274afe760e01b81526001600160a01b0384166004820152602401610716565b5f5f195f610e5085610b61565b9050610e5e33858784611267565b949350505050565b600580546001600160a01b038381166001600160a01b0319831681179093556040519116919082907f8be0079c531659141344cd1fd0a4f28419497f9722a3daafe3b4186f6b6457e0905f90a35050565b610ebf610de3565b6005805460ff60a01b1916600160a01b1790557f62e78cea01bee320cd4e420270b5ea74000d11b0c9f74754ebdbfc544b05a258610dc63390565b5f5f195f610f0785610ab2565b9050610e5e33858388611267565b826001600160a01b0316856001600160a01b031614610f3957610f39838683610c9b565b610f4383826112c9565b610f4d8483611301565b826001600160a01b0316846001600160a01b0316866001600160a01b03167ffbde797d201c681b91056529119e0b02407c7bb96a4a2c75c01fc9667232c8db8585604051610fa5929190918252602082015260400190565b60405180910390a45050505050565b5f610fe1610fc18361132c565b8015610fdc57505f8480610fd757610fd7611771565b868809115b151590565b610fec868686611358565b610b0b91906117b9565b6001600160a01b03841661101f5760405163e602df0560e01b81525f6004820152602401610716565b6001600160a01b03831661104857604051634a1406b160e11b81525f6004820152602401610716565b6001600160a01b038085165f9081526001602090815260408083209387168352929052208290558015610cfe57826001600160a01b0316846001600160a01b03167f8c5be1e5ebec7d5bd14f71427d1e84f3dd0314c0f7b2291e5b200ac8c7c3b925846040516110ba91815260200190565b60405180910390a350505050565b6001600160a01b0383166110f2578060025f8282546110e791906117b9565b9091555061114f9050565b6001600160a01b0383165f90815260208190526040902054818110156111315783818360405163391434e360e21b815260040161071693929190611798565b6001600160a01b0384165f9081526020819052604090209082900390555b6001600160a01b03821661116b57600280548290039055611189565b6001600160a01b0382165f9081526020819052604090208054820190555b816001600160a01b0316836001600160a01b03167fddf252ad1be2c89b69c2b068fc378daa952ba7f163c4a11628f55a4df523b3ef836040516111ce91815260200190565b60405180910390a3505050565b600554600160a01b900460ff166106c457604051638dfc202b60e01b815260040160405180910390fd5b60405163a9059cbb60e01b5f8181526001600160a01b038616600452602485905291602083604481808b5af1925060015f5114831661125b57838315161561124f573d5f823e3d81fd5b5f873b113d1516831692505b60405250949350505050565b6112718483611408565b61127b8382611434565b826001600160a01b0316846001600160a01b03167fdcbc1c05240f31ff3ad067ef1ee35ce4997762752e3a095284754544f4c709d784846040516110ba929190918252602082015260400190565b6001600160a01b0382166112f257604051634b637e8f60e11b81525f6004820152602401610716565b6112fd825f836110c8565b5050565b6112fd7f00000000000000000000000000000000000000000000000000000000000000008383610e0e565b5f6002826003811115611341576113416118ba565b61134b91906118ce565b60ff166001149050919050565b5f805f6113658686611468565b91509150815f036113895783818161137f5761137f611771565b0492505050610681565b8184116113a0576113a06003851502601118611484565b5f848688095f868103871696879004966002600389028118808a02820302808a02820302808a02820302808a02820302808a02820302808a02909103029181900381900460010185841190960395909502919093039390930492909217029150509392505050565b6112fd7f0000000000000000000000000000000000000000000000000000000000000000833084611495565b6001600160a01b03821661145d5760405163ec442f0560e01b81525f6004820152602401610716565b6112fd5f83836110c8565b5f805f1983850993909202808410938190039390930393915050565b634e487b715f52806020526024601cfd5b6114a38484848460016114cb565b610cfe57604051635274afe760e01b81526001600160a01b0385166004820152602401610716565b6040516323b872dd60e01b5f8181526001600160a01b038781166004528616602452604485905291602083606481808c5af1925060015f5114831661152757838315161561151b573d5f823e3d81fd5b5f883b113d1516831692505b604052505f60605295945050505050565b5f602080835283518060208501525f5b8181101561156457858101830151858201604001528201611548565b505f604082860101526040601f19601f8301168501019250505092915050565b5f60208284031215611594575f80fd5b5035919050565b6001600160a01b0381168114610c1d575f80fd5b5f80604083850312156115c0575f80fd5b82356115cb8161159b565b946020939093013593505050565b5f805f606084860312156115eb575f80fd5b83356115f68161159b565b925060208401356116068161159b565b929592945050506040919091013590565b5f60208284031215611627575f80fd5b81356106818161159b565b5f8060408385031215611643575f80fd5b8235915060208301356116558161159b565b809150509250929050565b5f805f60608486031215611672575f80fd5b8335925060208401356116848161159b565b915060408401356116948161159b565b809150509250925092565b5f80604083850312156116b0575f80fd5b82356116bb8161159b565b915060208301356116558161159b565b5f602082840312156116db575f80fd5b5051919050565b600181811c908216806116f657607f821691505b60208210810361171457634e487b7160e01b5f52602260045260245ffd5b50919050565b634e487b7160e01b5f52601160045260245ffd5b60ff818116838216019081111561063a5761063a61171a565b8181038181111561063a5761063a61171a565b808202811582820484141761063a5761063a61171a565b634e487b7160e01b5f52601260045260245ffd5b5f8261179357611793611771565b500490565b6001600160a01b039390931683526020830191909152604082015260600190565b8082018082111561063a5761063a61171a565b600181815b8085111561180657815f19048211156117ec576117ec61171a565b808516156117f957918102915b93841c93908002906117d1565b509250929050565b5f8261181c5750600161063a565b8161182857505f61063a565b816001811461183e576002811461184857611864565b600191505061063a565b60ff8411156118595761185961171a565b50506001821b61063a565b5060208310610133831016604e8410600b8410161715611887575081810a61063a565b61189183836117cc565b805f19048211156118a4576118a461171a565b029392505050565b5f61068160ff84168361180e565b634e487b7160e01b5f52602160045260245ffd5b5f60ff8316806118e0576118e0611771565b8060ff8416069150509291505056fea26469706673582212203d86e17efa14ffd6fd8ba7e0ec507ee6ac3631faa858b12f8ac4838ff934a1c164736f6c63430008180033a2646970667358221220e06f635b1c26126b3b976fca7e95d63c9119aac1081f6147af70f32b0e6ce36e64736f6c63430008180033","linkReferences":{}},"methodIdentifiers":{"allVaults(uint256)":"9094a91e","createVault(address,address)":"cc92d31c","vaultCount()":"a7c6a100","vaultFor(address)":"3d77cdcf"},"id":44}