{"abi":[{"type":"constructor","inputs":[{"name":"asset_","type":"address","internalType":"contract IERC20"},{"name":"name_","type":"string","internalType":"string"},{"name":"symbol_","type":"string","internalType":"string"},{"name":"owner_","type":"address","internalType":"address"}],"stateMutability":"nonpayable"},{"type":"function","name":"MAX_FEE_BPS","inputs":[],"outputs":[{"name":"","type":"uint256","internalType":"uint256"}],"stateMutability":"view"},{"type":"function","name":"STREAM_DURATION","inputs":[],"outputs":[{"name":"","type":"uint256","internalType":"uint256"}],"stateMutability":"view"},{"type":"function","name":"allowance","inputs":[{"name":"owner","type":"address","internalType":"address"},{"name":"spender","type":"address","internalType":"address"}],"outputs":[{"name":"","type":"uint256","internalType":"uint256"}],"stateMutability":"view"},{"type":"function","name":"approve","inputs":[{"name":"spender","type":"address","internalType":"address"},{"name":"value","type":"uint256","internalType":"uint256"}],"outputs":[{"name":"","type":"bool","internalType":"bool"}],"stateMutability":"nonpayable"},{"type":"function","name":"asset","inputs":[],"outputs":[{"name":"","type":"address","internalType":"address"}],"stateMutability":"view"},{"type":"function","name":"balanceOf","inputs":[{"name":"account","type":"address","internalType":"address"}],"outputs":[{"name":"","type":"uint256","internalType":"uint256"}],"stateMutability":"view"},{"type":"function","name":"convertToAssets","inputs":[{"name":"shares","type":"uint256","internalType":"uint256"}],"outputs":[{"name":"","type":"uint256","internalType":"uint256"}],"stateMutability":"view"},{"type":"function","name":"convertToShares","inputs":[{"name":"assets","type":"uint256","internalType":"uint256"}],"outputs":[{"name":"","type":"uint256","internalType":"uint256"}],"stateMutability":"view"},{"type":"function","name":"decimals","inputs":[],"outputs":[{"name":"","type":"uint8","internalType":"uint8"}],"stateMutability":"view"},{"type":"function","name":"deposit","inputs":[{"name":"assets","type":"uint256","internalType":"uint256"},{"name":"receiver","type":"address","internalType":"address"}],"outputs":[{"name":"","type":"uint256","internalType":"uint256"}],"stateMutability":"nonpayable"},{"type":"function","name":"feeRecipient","inputs":[],"outputs":[{"name":"","type":"address","internalType":"address"}],"stateMutability":"view"},{"type":"function","name":"harvest","inputs":[],"outputs":[{"name":"netStreamed","type":"uint256","internalType":"uint256"}],"stateMutability":"nonpayable"},{"type":"function","name":"lockedYield","inputs":[],"outputs":[{"name":"","type":"uint256","internalType":"uint256"}],"stateMutability":"view"},{"type":"function","name":"lockedYieldNow","inputs":[],"outputs":[{"name":"","type":"uint256","internalType":"uint256"}],"stateMutability":"view"},{"type":"function","name":"maxDeposit","inputs":[{"name":"","type":"address","internalType":"address"}],"outputs":[{"name":"","type":"uint256","internalType":"uint256"}],"stateMutability":"view"},{"type":"function","name":"maxMint","inputs":[{"name":"","type":"address","internalType":"address"}],"outputs":[{"name":"","type":"uint256","internalType":"uint256"}],"stateMutability":"view"},{"type":"function","name":"maxRedeem","inputs":[{"name":"owner","type":"address","internalType":"address"}],"outputs":[{"name":"","type":"uint256","internalType":"uint256"}],"stateMutability":"view"},{"type":"function","name":"maxWithdraw","inputs":[{"name":"owner","type":"address","internalType":"address"}],"outputs":[{"name":"","type":"uint256","internalType":"uint256"}],"stateMutability":"view"},{"type":"function","name":"mint","inputs":[{"name":"shares","type":"uint256","internalType":"uint256"},{"name":"receiver","type":"address","internalType":"address"}],"outputs":[{"name":"","type":"uint256","internalType":"uint256"}],"stateMutability":"nonpayable"},{"type":"function","name":"name","inputs":[],"outputs":[{"name":"","type":"string","internalType":"string"}],"stateMutability":"view"},{"type":"function","name":"owner","inputs":[],"outputs":[{"name":"","type":"address","internalType":"address"}],"stateMutability":"view"},{"type":"function","name":"pause","inputs":[],"outputs":[],"stateMutability":"nonpayable"},{"type":"function","name":"paused","inputs":[],"outputs":[{"name":"","type":"bool","internalType":"bool"}],"stateMutability":"view"},{"type":"function","name":"performanceFeeBps","inputs":[],"outputs":[{"name":"","type":"uint256","internalType":"uint256"}],"stateMutability":"view"},{"type":"function","name":"previewDeposit","inputs":[{"name":"assets","type":"uint256","internalType":"uint256"}],"outputs":[{"name":"","type":"uint256","internalType":"uint256"}],"stateMutability":"view"},{"type":"function","name":"previewMint","inputs":[{"name":"shares","type":"uint256","internalType":"uint256"}],"outputs":[{"name":"","type":"uint256","internalType":"uint256"}],"stateMutability":"view"},{"type":"function","name":"previewRedeem","inputs":[{"name":"shares","type":"uint256","internalType":"uint256"}],"outputs":[{"name":"","type":"uint256","internalType":"uint256"}],"stateMutability":"view"},{"type":"function","name":"previewWithdraw","inputs":[{"name":"assets","type":"uint256","internalType":"uint256"}],"outputs":[{"name":"","type":"uint256","internalType":"uint256"}],"stateMutability":"view"},{"type":"function","name":"redeem","inputs":[{"name":"shares","type":"uint256","internalType":"uint256"},{"name":"receiver","type":"address","internalType":"address"},{"name":"owner","type":"address","internalType":"address"}],"outputs":[{"name":"","type":"uint256","internalType":"uint256"}],"stateMutability":"nonpayable"},{"type":"function","name":"renounceOwnership","inputs":[],"outputs":[],"stateMutability":"nonpayable"},{"type":"function","name":"setFeeRecipient","inputs":[{"name":"recipient","type":"address","internalType":"address"}],"outputs":[],"stateMutability":"nonpayable"},{"type":"function","name":"setPerformanceFee","inputs":[{"name":"newFeeBps","type":"uint256","internalType":"uint256"}],"outputs":[],"stateMutability":"nonpayable"},{"type":"function","name":"setYieldSource","inputs":[{"name":"source","type":"address","internalType":"contract IYieldSource"}],"outputs":[],"stateMutability":"nonpayable"},{"type":"function","name":"streamStart","inputs":[],"outputs":[{"name":"","type":"uint256","internalType":"uint256"}],"stateMutability":"view"},{"type":"function","name":"symbol","inputs":[],"outputs":[{"name":"","type":"string","internalType":"string"}],"stateMutability":"view"},{"type":"function","name":"totalAssets","inputs":[],"outputs":[{"name":"","type":"uint256","internalType":"uint256"}],"stateMutability":"view"},{"type":"function","name":"totalSupply","inputs":[],"outputs":[{"name":"","type":"uint256","internalType":"uint256"}],"stateMutability":"view"},{"type":"function","name":"transfer","inputs":[{"name":"to","type":"address","internalType":"address"},{"name":"value","type":"uint256","internalType":"uint256"}],"outputs":[{"name":"","type":"bool","internalType":"bool"}],"stateMutability":"nonpayable"},{"type":"function","name":"transferFrom","inputs":[{"name":"from","type":"address","internalType":"address"},{"name":"to","type":"address","internalType":"address"},{"name":"value","type":"uint256","internalType":"uint256"}],"outputs":[{"name":"","type":"bool","internalType":"bool"}],"stateMutability":"nonpayable"},{"type":"function","name":"transferOwnership","inputs":[{"name":"newOwner","type":"address","internalType":"address"}],"outputs":[],"stateMutability":"nonpayable"},{"type":"function","name":"unpause","inputs":[],"outputs":[],"stateMutability":"nonpayable"},{"type":"function","name":"withdraw","inputs":[{"name":"assets","type":"uint256","internalType":"uint256"},{"name":"receiver","type":"address","internalType":"address"},{"name":"owner","type":"address","internalType":"address"}],"outputs":[{"name":"","type":"uint256","internalType":"uint256"}],"stateMutability":"nonpayable"},{"type":"function","name":"yieldSource","inputs":[],"outputs":[{"name":"","type":"address","internalType":"contract IYieldSource"}],"stateMutability":"view"},{"type":"event","name":"Approval","inputs":[{"name":"owner","type":"address","indexed":true,"internalType":"address"},{"name":"spender","type":"address","indexed":true,"internalType":"address"},{"name":"value","type":"uint256","indexed":false,"internalType":"uint256"}],"anonymous":false},{"type":"event","name":"Deposit","inputs":[{"name":"sender","type":"address","indexed":true,"internalType":"address"},{"name":"owner","type":"address","indexed":true,"internalType":"address"},{"name":"assets","type":"uint256","indexed":false,"internalType":"uint256"},{"name":"shares","type":"uint256","indexed":false,"internalType":"uint256"}],"anonymous":false},{"type":"event","name":"Harvested","inputs":[{"name":"grossYield","type":"uint256","indexed":false,"internalType":"uint256"},{"name":"fee","type":"uint256","indexed":false,"internalType":"uint256"},{"name":"netStreamed","type":"uint256","indexed":false,"internalType":"uint256"}],"anonymous":false},{"type":"event","name":"OwnershipTransferred","inputs":[{"name":"previousOwner","type":"address","indexed":true,"internalType":"address"},{"name":"newOwner","type":"address","indexed":true,"internalType":"address"}],"anonymous":false},{"type":"event","name":"Paused","inputs":[{"name":"account","type":"address","indexed":false,"internalType":"address"}],"anonymous":false},{"type":"event","name":"PerformanceFeeUpdated","inputs":[{"name":"newFeeBps","type":"uint256","indexed":false,"internalType":"uint256"}],"anonymous":false},{"type":"event","name":"Transfer","inputs":[{"name":"from","type":"address","indexed":true,"internalType":"address"},{"name":"to","type":"address","indexed":true,"internalType":"address"},{"name":"value","type":"uint256","indexed":false,"internalType":"uint256"}],"anonymous":false},{"type":"event","name":"Unpaused","inputs":[{"name":"account","type":"address","indexed":false,"internalType":"address"}],"anonymous":false},{"type":"event","name":"Withdraw","inputs":[{"name":"sender","type":"address","indexed":true,"internalType":"address"},{"name":"receiver","type":"address","indexed":true,"internalType":"address"},{"name":"owner","type":"address","indexed":true,"internalType":"address"},{"name":"assets","type":"uint256","indexed":false,"internalType":"uint256"},{"name":"shares","type":"uint256","indexed":false,"internalType":"uint256"}],"anonymous":false},{"type":"event","name":"YieldSourceUpdated","inputs":[{"name":"newSource","type":"address","indexed":true,"internalType":"address"}],"anonymous":false},{"type":"error","name":"ERC20InsufficientAllowance","inputs":[{"name":"spender","type":"address","internalType":"address"},{"name":"allowance","type":"uint256","internalType":"uint256"},{"name":"needed","type":"uint256","internalType":"uint256"}]},{"type":"error","name":"ERC20InsufficientBalance","inputs":[{"name":"sender","type":"address","internalType":"address"},{"name":"balance","type":"uint256","internalType":"uint256"},{"name":"needed","type":"uint256","internalType":"uint256"}]},{"type":"error","name":"ERC20InvalidApprover","inputs":[{"name":"approver","type":"address","internalType":"address"}]},{"type":"error","name":"ERC20InvalidReceiver","inputs":[{"name":"receiver","type":"address","internalType":"address"}]},{"type":"error","name":"ERC20InvalidSender","inputs":[{"name":"sender","type":"address","internalType":"address"}]},{"type":"error","name":"ERC20InvalidSpender","inputs":[{"name":"spender","type":"address","internalType":"address"}]},{"type":"error","name":"ERC4626ExceededMaxDeposit","inputs":[{"name":"receiver","type":"address","internalType":"address"},{"name":"assets","type":"uint256","internalType":"uint256"},{"name":"max","type":"uint256","internalType":"uint256"}]},{"type":"error","name":"ERC4626ExceededMaxMint","inputs":[{"name":"receiver","type":"address","internalType":"address"},{"name":"shares","type":"uint256","internalType":"uint256"},{"name":"max","type":"uint256","internalType":"uint256"}]},{"type":"error","name":"ERC4626ExceededMaxRedeem","inputs":[{"name":"owner","type":"address","internalType":"address"},{"name":"shares","type":"uint256","internalType":"uint256"},{"name":"max","type":"uint256","internalType":"uint256"}]},{"type":"error","name":"ERC4626ExceededMaxWithdraw","inputs":[{"name":"owner","type":"address","internalType":"address"},{"name":"assets","type":"uint256","internalType":"uint256"},{"name":"max","type":"uint256","internalType":"uint256"}]},{"type":"error","name":"EnforcedPause","inputs":[]},{"type":"error","name":"ExpectedPause","inputs":[]},{"type":"error","name":"FeeTooHigh","inputs":[]},{"type":"error","name":"OwnableInvalidOwner","inputs":[{"name":"owner","type":"address","internalType":"address"}]},{"type":"error","name":"OwnableUnauthorizedAccount","inputs":[{"name":"account","type":"address","internalType":"address"}]},{"type":"error","name":"SafeERC20FailedOperation","inputs":[{"name":"token","type":"address","internalType":"address"}]},{"type":"error","name":"ZeroAddress","inputs":[]}],"bytecode":{"object":"0x60c060405234801562000010575f80fd5b5060405162001ea938038062001ea98339810160408190526200003391620002d4565b808484846003620000458382620003ed565b506004620000548282620003ed565b5050505f806200006a83620000f060201b60201c565b91509150816200007c5760126200007e565b805b60ff1660a05250506001600160a01b039081166080528116620000ba57604051631e4fbdf760e01b81525f600482015260240160405180910390fd5b620000c58162000189565b50600880546001600160a01b0319166001600160a01b039290921691909117905550620004b9915050565b5f8080620000fd60405190565b6040805160048152602481019091526020810180516001600160e01b0390811663313ce56760e01b179091529192505f9182916200013f91889190620001da16565b5090925090506200014f83604052565b8180156200015e575060203d10155b80156200016c575060ff8111155b62000179575f806200017d565b6001815b94509450505050915091565b600580546001600160a01b038381166001600160a01b0319831681179093556040519116919082907f8be0079c531659141344cd1fd0a4f28419497f9722a3daafe3b4186f6b6457e0905f90a35050565b5f805f60405f855160208701885afa92505f51915060205190509250925092565b6001600160a01b038116811462000210575f80fd5b50565b634e487b7160e01b5f52604160045260245ffd5b5f82601f83011262000237575f80fd5b81516001600160401b038082111562000254576200025462000213565b604051601f8301601f19908116603f011681019082821181831017156200027f576200027f62000213565b81604052838152602092508660208588010111156200029c575f80fd5b5f91505b83821015620002bf5785820183015181830184015290820190620002a0565b5f602085830101528094505050505092915050565b5f805f8060808587031215620002e8575f80fd5b8451620002f581620001fb565b60208601519094506001600160401b038082111562000312575f80fd5b620003208883890162000227565b9450604087015191508082111562000336575f80fd5b50620003458782880162000227565b92505060608501516200035881620001fb565b939692955090935050565b600181811c908216806200037857607f821691505b6020821081036200039757634e487b7160e01b5f52602260045260245ffd5b50919050565b601f821115620003e857805f5260205f20601f840160051c81016020851015620003c45750805b601f840160051c820191505b81811015620003e5575f8155600101620003d0565b50505b505050565b81516001600160401b0381111562000409576200040962000213565b62000421816200041a845462000363565b846200039d565b602080601f83116001811462000457575f84156200043f5750858301515b5f19600386901b1c1916600185901b178555620004b1565b5f85815260208120601f198616915b82811015620004875788860151825594840194600190910190840162000466565b5085821015620004a557878501515f19600388901b60f8161c191681555b505060018460011b0185555b505050505050565b60805160a0516119b2620004f75f395f6106f101525f818161031d0152818161056a0152818161078301528181611393015261149a01526119b25ff3fe608060405234801561000f575f80fd5b5060043610610260575f3560e01c8063715018a61161014b578063ba087652116100bf578063d905777e11610084578063d905777e146104e5578063dc9db7f1146104f8578063dd62ed3e14610501578063e74b981b14610539578063ef8b30f7146104b6578063f2fde38b1461054c575f80fd5b8063ba087652146104a3578063c63d75b61461035f578063c6e6f592146104b6578063ce96cb77146104c9578063d55be8c6146104dc575f80fd5b8063a9059cbb11610110578063a9059cbb14610446578063a90c1bab14610459578063b2470e5c14610461578063b3d7f6b914610474578063b460af9414610487578063b9d4e8791461049a575f80fd5b8063715018a61461040a5780638456cb59146104125780638da5cb5b1461041a57806394bf804d1461042b57806395d89b411461043e575f80fd5b80633f4ba83a116101e25780634cdad506116101a75780634cdad506146102945780635c975abb14610397578063666a0c84146103a95780636e553f65146103bc57806370897b23146103cf57806370a08231146103e2575f80fd5b80633f4ba83a14610355578063402d267d1461035f5780634641257d14610373578063469048401461037b5780634a8e6b2b1461038e575f80fd5b806318160ddd1161022857806318160ddd146102dd5780631bf3368b146102e557806323b872dd146102ee578063313ce5671461030157806338d52e0f1461031b575f80fd5b806301e1d1141461026457806306fdde031461027f57806307a2d13a14610294578063095ea7b3146102a75780630a28a477146102ca575b5f80fd5b61026c61055f565b6040519081526020015b60405180910390f35b610287610600565b60405161027691906115c5565b61026c6102a2366004611611565b610690565b6102ba6102b536600461163c565b6106a1565b6040519015158152602001610276565b61026c6102d8366004611611565b6106b8565b60025461026c565b61026c60095481565b6102ba6102fc366004611666565b6106c4565b6103096106e9565b60405160ff9091168152602001610276565b7f00000000000000000000000000000000000000000000000000000000000000005b6040516001600160a01b039091168152602001610276565b61035d610715565b005b61026c61036d3660046116a4565b505f1990565b61026c610727565b60085461033d906001600160a01b031681565b61026c61708081565b600554600160a01b900460ff166102ba565b61035d6103b73660046116a4565b6109a1565b61026c6103ca3660046116bf565b610a19565b61035d6103dd366004611611565b610a2c565b61026c6103f03660046116a4565b6001600160a01b03165f9081526020819052604090205490565b61035d610a92565b61035d610aa3565b6005546001600160a01b031661033d565b61026c6104393660046116bf565b610ab3565b610287610ac6565b6102ba61045436600461163c565b610ad5565b61026c610ae2565b60065461033d906001600160a01b031681565b61026c610482366004611611565b610b3f565b61026c6104953660046116ed565b610b4b565b61026c60075481565b61026c6104b13660046116ed565b610ba1565b61026c6104c4366004611611565b610bee565b61026c6104d73660046116a4565b610bf9565b61026c6107d081565b61026c6104f33660046116a4565b610c02565b61026c600a5481565b61026c61050f36600461172c565b6001600160a01b039182165f90815260016020908152604080832093909416825291909152205490565b61035d6105473660046116a4565b610c1f565b61035d61055a3660046116a4565b610c70565b5f610568610ae2565b7f00000000000000000000000000000000000000000000000000000000000000006040516370a0823160e01b81523060048201526001600160a01b0391909116906370a0823190602401602060405180830381865afa1580156105cd573d5f803e3d5ffd5b505050506040513d601f19601f820116820180604052508101906105f19190611758565b6105fb9190611783565b905090565b60606003805461060f90611796565b80601f016020809104026020016040519081016040528092919081815260200182805461063b90611796565b80156106865780601f1061065d57610100808354040283529160200191610686565b820191905f5260205f20905b81548152906001019060200180831161066957829003601f168201915b5050505050905090565b5f61069b825f610cad565b92915050565b5f336106ae818585610ce6565b5060019392505050565b5f61069b826001610cf8565b5f336106d1858285610d28565b6106dc858585610d91565b60019150505b9392505050565b5f6105fb60067f00000000000000000000000000000000000000000000000000000000000000006117ce565b61071d610dee565b610725610e1b565b565b5f610730610e70565b6006546001600160a01b0316806107805760405162461bcd60e51b815260206004820152600f60248201526e6e6f207969656c6420736f7572636560881b60448201526064015b60405180910390fd5b5f7f00000000000000000000000000000000000000000000000000000000000000006040516370a0823160e01b81523060048201529091505f906001600160a01b038316906370a0823190602401602060405180830381865afa1580156107e9573d5f803e3d5ffd5b505050506040513d601f19601f8201168201806040525081019061080d9190611758565b60405163072e008f60e11b81523060048201529091506001600160a01b03841690630e5c011e906024016020604051808303815f875af1158015610853573d5f803e3d5ffd5b505050506040513d601f19601f820116820180604052508101906108779190611758565b506040516370a0823160e01b81523060048201525f9082906001600160a01b038516906370a0823190602401602060405180830381865afa1580156108be573d5f803e3d5ffd5b505050506040513d601f19601f820116820180604052508101906108e29190611758565b6108ec9190611783565b90505f8115610932576127106007548361090691906117e7565b6109109190611812565b9050801561093257600854610932906001600160a01b03868116911683610e9b565b61093c8183611783565b955085610947610ae2565b6109519190611825565b60095542600a5560408051838152602081018390529081018790527febdd323f18ba49318367d0c92a04d5c51a67f15a60ad50d46523db464661a3029060600160405180910390a1505050505090565b6109a9610dee565b6001600160a01b0381166109d05760405163d92e233d60e01b815260040160405180910390fd5b600680546001600160a01b0319166001600160a01b0383169081179091556040517fdfe6862f96614d57cd7ddf7f02342750b21effcddd4517c57d0192cf5bd26165905f90a250565b5f610a22610e70565b6106e28383610ed0565b610a34610dee565b6107d0811115610a575760405163cd4e616760e01b815260040160405180910390fd5b60078190556040518181527f9b49d0cd76012d9c67241c2f68f836efbaf50ea29901a250040671402d5263f59060200160405180910390a150565b610a9a610dee565b6107255f610ef3565b610aab610dee565b610725610f44565b5f610abc610e70565b6106e28383610f87565b60606004805461060f90611796565b5f336106ae818585610d91565b6009545f90808203610af5575f91505090565b5f600a5442610b049190611783565b90506170808110610b17575f9250505090565b617080610b2482846117e7565b610b2e9190611812565b610b389083611783565b9250505090565b5f61069b826001610cad565b5f80610b5683610bf9565b905080851115610b7f57828582604051633fa733bb60e21b815260040161077793929190611838565b5f610b89866106b8565b9050610b983386868985610fa2565b95945050505050565b5f80610bac83610c02565b905080851115610bd557828582604051632e52afbb60e21b815260040161077793929190611838565b5f610bdf86610690565b9050610b98338686848a610fa2565b5f61069b825f610cf8565b5f61069b6102a2835b6001600160a01b0381165f9081526020819052604081205461069b565b610c27610dee565b6001600160a01b038116610c4e5760405163d92e233d60e01b815260040160405180910390fd5b600880546001600160a01b0319166001600160a01b0392909216919091179055565b610c78610dee565b6001600160a01b038116610ca157604051631e4fbdf760e01b81525f6004820152602401610777565b610caa81610ef3565b50565b5f6106e2610cb961055f565b610cc4906001611825565b610cd06006600a611939565b600254610cdd9190611825565b85919085611041565b610cf38383836001611083565b505050565b5f6106e2610d086006600a611939565b600254610d159190611825565b610d1d61055f565b610cdd906001611825565b6001600160a01b038381165f908152600160209081526040808320938616835292905220545f19811015610d8b5781811015610d7d57828183604051637dc7a0d960e11b815260040161077793929190611838565b610d8b84848484035f611083565b50505050565b6001600160a01b038316610dba57604051634b637e8f60e11b81525f6004820152602401610777565b6001600160a01b038216610de35760405163ec442f0560e01b81525f6004820152602401610777565b610cf3838383611155565b6005546001600160a01b031633146107255760405163118cdaa760e01b8152336004820152602401610777565b610e23611268565b6005805460ff60a01b191690557f5db9ee0a495bf2e6ff9c91a7834c1ba4fdd244a5e8aa4e537bd38aeae4b073aa335b6040516001600160a01b03909116815260200160405180910390a1565b600554600160a01b900460ff16156107255760405163d93c066560e01b815260040160405180910390fd5b610ea88383836001611292565b610cf357604051635274afe760e01b81526001600160a01b0384166004820152602401610777565b5f5f195f610edd85610bee565b9050610eeb338587846112f4565b949350505050565b600580546001600160a01b038381166001600160a01b0319831681179093556040519116919082907f8be0079c531659141344cd1fd0a4f28419497f9722a3daafe3b4186f6b6457e0905f90a35050565b610f4c610e70565b6005805460ff60a01b1916600160a01b1790557f62e78cea01bee320cd4e420270b5ea74000d11b0c9f74754ebdbfc544b05a258610e533390565b5f5f195f610f9485610b3f565b9050610eeb338583886112f4565b826001600160a01b0316856001600160a01b031614610fc657610fc6838683610d28565b610fd08382611356565b610fda848361138e565b826001600160a01b0316846001600160a01b0316866001600160a01b03167ffbde797d201c681b91056529119e0b02407c7bb96a4a2c75c01fc9667232c8db8585604051611032929190918252602082015260400190565b60405180910390a45050505050565b5f61106e61104e836113b9565b801561106957505f8480611064576110646117fe565b868809115b151590565b6110798686866113e5565b610b989190611825565b6001600160a01b0384166110ac5760405163e602df0560e01b81525f6004820152602401610777565b6001600160a01b0383166110d557604051634a1406b160e11b81525f6004820152602401610777565b6001600160a01b038085165f9081526001602090815260408083209387168352929052208290558015610d8b57826001600160a01b0316846001600160a01b03167f8c5be1e5ebec7d5bd14f71427d1e84f3dd0314c0f7b2291e5b200ac8c7c3b9258460405161114791815260200190565b60405180910390a350505050565b6001600160a01b03831661117f578060025f8282546111749190611825565b909155506111dc9050565b6001600160a01b0383165f90815260208190526040902054818110156111be5783818360405163391434e360e21b815260040161077793929190611838565b6001600160a01b0384165f9081526020819052604090209082900390555b6001600160a01b0382166111f857600280548290039055611216565b6001600160a01b0382165f9081526020819052604090208054820190555b816001600160a01b0316836001600160a01b03167fddf252ad1be2c89b69c2b068fc378daa952ba7f163c4a11628f55a4df523b3ef8360405161125b91815260200190565b60405180910390a3505050565b600554600160a01b900460ff1661072557604051638dfc202b60e01b815260040160405180910390fd5b60405163a9059cbb60e01b5f8181526001600160a01b038616600452602485905291602083604481808b5af1925060015f511483166112e85783831516156112dc573d5f823e3d81fd5b5f873b113d1516831692505b60405250949350505050565b6112fe8483611495565b61130883826114c1565b826001600160a01b0316846001600160a01b03167fdcbc1c05240f31ff3ad067ef1ee35ce4997762752e3a095284754544f4c709d78484604051611147929190918252602082015260400190565b6001600160a01b03821661137f57604051634b637e8f60e11b81525f6004820152602401610777565b61138a825f83611155565b5050565b61138a7f00000000000000000000000000000000000000000000000000000000000000008383610e9b565b5f60028260038111156113ce576113ce611947565b6113d8919061195b565b60ff166001149050919050565b5f805f6113f286866114f5565b91509150815f036114165783818161140c5761140c6117fe565b04925050506106e2565b81841161142d5761142d6003851502601118611511565b5f848688095f868103871696879004966002600389028118808a02820302808a02820302808a02820302808a02820302808a02820302808a02909103029181900381900460010185841190960395909502919093039390930492909217029150509392505050565b61138a7f0000000000000000000000000000000000000000000000000000000000000000833084611522565b6001600160a01b0382166114ea5760405163ec442f0560e01b81525f6004820152602401610777565b61138a5f8383611155565b5f805f1983850993909202808410938190039390930393915050565b634e487b715f52806020526024601cfd5b611530848484846001611558565b610d8b57604051635274afe760e01b81526001600160a01b0385166004820152602401610777565b6040516323b872dd60e01b5f8181526001600160a01b038781166004528616602452604485905291602083606481808c5af1925060015f511483166115b45783831516156115a8573d5f823e3d81fd5b5f883b113d1516831692505b604052505f60605295945050505050565b5f602080835283518060208501525f5b818110156115f1578581018301518582016040015282016115d5565b505f604082860101526040601f19601f8301168501019250505092915050565b5f60208284031215611621575f80fd5b5035919050565b6001600160a01b0381168114610caa575f80fd5b5f806040838503121561164d575f80fd5b823561165881611628565b946020939093013593505050565b5f805f60608486031215611678575f80fd5b833561168381611628565b9250602084013561169381611628565b929592945050506040919091013590565b5f602082840312156116b4575f80fd5b81356106e281611628565b5f80604083850312156116d0575f80fd5b8235915060208301356116e281611628565b809150509250929050565b5f805f606084860312156116ff575f80fd5b83359250602084013561171181611628565b9150604084013561172181611628565b809150509250925092565b5f806040838503121561173d575f80fd5b823561174881611628565b915060208301356116e281611628565b5f60208284031215611768575f80fd5b5051919050565b634e487b7160e01b5f52601160045260245ffd5b8181038181111561069b5761069b61176f565b600181811c908216806117aa57607f821691505b6020821081036117c857634e487b7160e01b5f52602260045260245ffd5b50919050565b60ff818116838216019081111561069b5761069b61176f565b808202811582820484141761069b5761069b61176f565b634e487b7160e01b5f52601260045260245ffd5b5f82611820576118206117fe565b500490565b8082018082111561069b5761069b61176f565b6001600160a01b039390931683526020830191909152604082015260600190565b600181815b8085111561189357815f19048211156118795761187961176f565b8085161561188657918102915b93841c939080029061185e565b509250929050565b5f826118a95750600161069b565b816118b557505f61069b565b81600181146118cb57600281146118d5576118f1565b600191505061069b565b60ff8411156118e6576118e661176f565b50506001821b61069b565b5060208310610133831016604e8410600b8410161715611914575081810a61069b565b61191e8383611859565b805f19048211156119315761193161176f565b029392505050565b5f6106e260ff84168361189b565b634e487b7160e01b5f52602160045260245ffd5b5f60ff83168061196d5761196d6117fe565b8060ff8416069150509291505056fea2646970667358221220a6422125cd33ef2db4f98af6355749e83eed1d2da1b031d814cb45da45128fc964736f6c63430008180033","linkReferences":{}},"methodIdentifiers":{"MAX_FEE_BPS()":"d55be8c6","STREAM_DURATION()":"4a8e6b2b","allowance(address,address)":"dd62ed3e","approve(address,uint256)":"095ea7b3","asset()":"38d52e0f","balanceOf(address)":"70a08231","convertToAssets(uint256)":"07a2d13a","convertToShares(uint256)":"c6e6f592","decimals()":"313ce567","deposit(uint256,address)":"6e553f65","feeRecipient()":"46904840","harvest()":"4641257d","lockedYield()":"1bf3368b","lockedYieldNow()":"a90c1bab","maxDeposit(address)":"402d267d","maxMint(address)":"c63d75b6","maxRedeem(address)":"d905777e","maxWithdraw(address)":"ce96cb77","mint(uint256,address)":"94bf804d","name()":"06fdde03","owner()":"8da5cb5b","pause()":"8456cb59","paused()":"5c975abb","performanceFeeBps()":"b9d4e879","previewDeposit(uint256)":"ef8b30f7","previewMint(uint256)":"b3d7f6b9","previewRedeem(uint256)":"4cdad506","previewWithdraw(uint256)":"0a28a477","redeem(uint256,address,address)":"ba087652","renounceOwnership()":"715018a6","setFeeRecipient(address)":"e74b981b","setPerformanceFee(uint256)":"70897b23","setYieldSource(address)":"666a0c84","streamStart()":"dc9db7f1","symbol()":"95d89b41","totalAssets()":"01e1d114","totalSupply()":"18160ddd","transfer(address,uint256)":"a9059cbb","transferFrom(address,address,uint256)":"23b872dd","transferOwnership(address)":"f2fde38b","unpause()":"3f4ba83a","withdraw(uint256,address,address)":"b460af94","yieldSource()":"b2470e5c"},"id":42}