{"abi":[{"type":"constructor","inputs":[{"name":"asset_","type":"address","internalType":"contract MockEquityToken"},{"name":"rateBps_","type":"uint256","internalType":"uint256"}],"stateMutability":"nonpayable"},{"type":"function","name":"asset","inputs":[],"outputs":[{"name":"","type":"address","internalType":"contract MockEquityToken"}],"stateMutability":"view"},{"type":"function","name":"harvest","inputs":[{"name":"vault","type":"address","internalType":"address"}],"outputs":[{"name":"yieldAmount","type":"uint256","internalType":"uint256"}],"stateMutability":"nonpayable"},{"type":"function","name":"lastHarvest","inputs":[{"name":"","type":"address","internalType":"address"}],"outputs":[{"name":"","type":"uint256","internalType":"uint256"}],"stateMutability":"view"},{"type":"function","name":"pendingYield","inputs":[{"name":"vault","type":"address","internalType":"address"}],"outputs":[{"name":"","type":"uint256","internalType":"uint256"}],"stateMutability":"view"},{"type":"function","name":"rateBps","inputs":[],"outputs":[{"name":"","type":"uint256","internalType":"uint256"}],"stateMutability":"view"},{"type":"function","name":"start","inputs":[{"name":"vault","type":"address","internalType":"address"}],"outputs":[],"stateMutability":"nonpayable"}],"bytecode":{"object":"0x60c060405234801561000f575f80fd5b506040516104c73803806104c783398101604081905261002e91610044565b6001600160a01b0390911660805260a05261007b565b5f8060408385031215610055575f80fd5b82516001600160a01b038116811461006b575f80fd5b6020939093015192949293505050565b60805160a0516104186100af5f395f8181608f01526102bd01525f818160b601528181610189015261023c01526104185ff3fe608060405234801561000f575f80fd5b5060043610610060575f3560e01c80630e5c011e1461006457806319d327dd1461008a57806338d52e0f146100b1578063486b9f88146100f0578063c7bf19801461010f578063dd0b281e14610122575b5f80fd5b61007761007236600461033b565b610137565b6040519081526020015b60405180910390f35b6100777f000000000000000000000000000000000000000000000000000000000000000081565b6100d87f000000000000000000000000000000000000000000000000000000000000000081565b6040516001600160a01b039091168152602001610081565b6100776100fe36600461033b565b5f6020819052908152604090205481565b61007761011d36600461033b565b6101e6565b61013561013036600461033b565b6102ff565b005b5f610141826101e6565b6001600160a01b0383165f908152602081905260409020429055905080156101e1576040516340c10f1960e01b81526001600160a01b038381166004830152602482018390527f000000000000000000000000000000000000000000000000000000000000000016906340c10f19906044015f604051808303815f87803b1580156101ca575f80fd5b505af11580156101dc573d5f803e3d5ffd5b505050505b919050565b6001600160a01b0381165f9081526020819052604081205480820361020d57505f92915050565b5f610218824261037c565b6040516370a0823160e01b81526001600160a01b0386811660048301529192505f917f000000000000000000000000000000000000000000000000000000000000000016906370a0823190602401602060405180830381865afa158015610281573d5f803e3d5ffd5b505050506040513d601f19601f820116820180604052508101906102a59190610395565b90506102b76301e133806127106103ac565b826102e27f0000000000000000000000000000000000000000000000000000000000000000846103ac565b6102ec91906103ac565b6102f691906103c3565b95945050505050565b6001600160a01b0381165f908152602081905260408120549003610338576001600160a01b0381165f9081526020819052604090204290555b50565b5f6020828403121561034b575f80fd5b81356001600160a01b0381168114610361575f80fd5b9392505050565b634e487b7160e01b5f52601160045260245ffd5b8181038181111561038f5761038f610368565b92915050565b5f602082840312156103a5575f80fd5b5051919050565b808202811582820484141761038f5761038f610368565b5f826103dd57634e487b7160e01b5f52601260045260245ffd5b50049056fea2646970667358221220dc6bbfeb3d6b37e955ef7f05a42bc9536b897a6daffe4ebf072364fcfe31e73164736f6c63430008180033","linkReferences":{}},"methodIdentifiers":{"asset()":"38d52e0f","harvest(address)":"0e5c011e","lastHarvest(address)":"486b9f88","pendingYield(address)":"c7bf1980","rateBps()":"19d327dd","start(address)":"dd0b281e"},"id":44}