{"abi":[{"type":"function","name":"KEEPER_REWARD_BPS","inputs":[],"outputs":[{"name":"","type":"uint256","internalType":"uint256"}],"stateMutability":"view"},{"type":"function","name":"MIN_INTERVAL","inputs":[],"outputs":[{"name":"","type":"uint256","internalType":"uint256"}],"stateMutability":"view"},{"type":"function","name":"canPoke","inputs":[{"name":"vault","type":"address","internalType":"address"}],"outputs":[{"name":"","type":"bool","internalType":"bool"}],"stateMutability":"view"},{"type":"function","name":"lastPoke","inputs":[{"name":"","type":"address","internalType":"address"}],"outputs":[{"name":"","type":"uint256","internalType":"uint256"}],"stateMutability":"view"},{"type":"function","name":"poke","inputs":[{"name":"vault","type":"address","internalType":"contract DividendVault"}],"outputs":[{"name":"harvested","type":"uint256","internalType":"uint256"}],"stateMutability":"nonpayable"},{"type":"event","name":"Poked","inputs":[{"name":"vault","type":"address","indexed":true,"internalType":"address"},{"name":"keeper","type":"address","indexed":true,"internalType":"address"},{"name":"harvested","type":"uint256","indexed":false,"internalType":"uint256"},{"name":"reward","type":"uint256","indexed":false,"internalType":"uint256"}],"anonymous":false},{"type":"error","name":"TooSoon","inputs":[{"name":"nextAllowed","type":"uint256","internalType":"uint256"}]}],"bytecode":{"object":"0x608060405234801561000f575f80fd5b506103548061001d5f395ff3fe608060405234801561000f575f80fd5b5060043610610055575f3560e01c80634bf7d95e14610059578063a9bc5b531461008b578063b1a997ac14610093578063c0368740146100a6578063cc129bd8146100af575b5f80fd5b610078610067366004610288565b5f6020819052908152604090205481565b6040519081526020015b60405180910390f35b610078603281565b6100786100a1366004610288565b6100d2565b610078610e1081565b6100c26100bd366004610288565b610223565b6040519015158152602001610082565b6001600160a01b0381165f9081526020819052604081205481906100f990610e10906102be565b9050804210801561012057506001600160a01b0383165f9081526020819052604090205415155b1561014557604051637437acf560e11b81526004810182905260240160405180910390fd5b6001600160a01b0383165f818152602081815260408083204290558051634641257d60e01b81529051634641257d936004808401949383900301908290875af1158015610194573d5f803e3d5ffd5b505050506040513d601f19601f820116820180604052508101906101b891906102d1565b91505f6127106101c96032856102e8565b6101d391906102ff565b604080518581526020810183905291925033916001600160a01b038716917f1bbd8529ac77a4194fac319b1d6c706b081ce935b01fba85860824cc89f425e4910160405180910390a35050919050565b6001600160a01b0381165f90815260208190526040812054158061026b57506001600160a01b0382165f9081526020819052604090205461026790610e10906102be565b4210155b92915050565b6001600160a01b0381168114610285575f80fd5b50565b5f60208284031215610298575f80fd5b81356102a381610271565b9392505050565b634e487b7160e01b5f52601160045260245ffd5b8082018082111561026b5761026b6102aa565b5f602082840312156102e1575f80fd5b5051919050565b808202811582820484141761026b5761026b6102aa565b5f8261031957634e487b7160e01b5f52601260045260245ffd5b50049056fea2646970667358221220aba40f0a21fdc8a1d31a7d70d30c65c24d753c00fce3ce48f2c6ed420afe47c964736f6c63430008180033","linkReferences":{}},"methodIdentifiers":{"KEEPER_REWARD_BPS()":"a9bc5b53","MIN_INTERVAL()":"c0368740","canPoke(address)":"cc129bd8","lastPoke(address)":"4bf7d95e","poke(address)":"b1a997ac"},"id":41}